{
  "contractName": "StudentContract",
  "abi": [
    {
      "inputs": [],
      "payable": false,
      "stateMutability": "nonpayable",
      "type": "constructor"
    },
    {
      "constant": true,
      "inputs": [],
      "name": "student",
      "outputs": [
        {
          "internalType": "address",
          "name": "",
          "type": "address"
        }
      ],
      "payable": false,
      "stateMutability": "view",
      "type": "function"
    },
    {
      "constant": true,
      "inputs": [],
      "name": "studentNumber",
      "outputs": [
        {
          "internalType": "uint256",
          "name": "",
          "type": "uint256"
        }
      ],
      "payable": false,
      "stateMutability": "view",
      "type": "function"
    },
    {
      "constant": false,
      "inputs": [
        {
          "internalType": "uint256",
          "name": "_studentNumber",
          "type": "uint256"
        }
      ],
      "name": "setStudentNumber",
      "outputs": [],
      "payable": true,
      "stateMutability": "payable",
      "type": "function"
    },
    {
      "constant": true,
      "inputs": [],
      "name": "getStudentNumber",
      "outputs": [
        {
          "internalType": "uint256",
          "name": "",
          "type": "uint256"
        }
      ],
      "payable": false,
      "stateMutability": "view",
      "type": "function"
    }
  ],
  "bytecode": "0x608060405234801561001057600080fd5b5033600160006101000a81548173ffffffffffffffffffffffffffffffffffffffff021916908373ffffffffffffffffffffffffffffffffffffffff160217905550600060026000600160009054906101000a900473ffffffffffffffffffffffffffffffffffffffff1673ffffffffffffffffffffffffffffffffffffffff1673ffffffffffffffffffffffffffffffffffffffff16815260200190815260200160002081905550610281806100c86000396000f3fe60806040526004361061003f5760003560e01c8063484a0d4114610044578063699450e81461006f578063b1a27377146100c6578063b6037759146100f1575b600080fd5b34801561005057600080fd5b5061005961011f565b6040518082815260200191505060405180910390f35b34801561007b57600080fd5b50610084610125565b604051808273ffffffffffffffffffffffffffffffffffffffff1673ffffffffffffffffffffffffffffffffffffffff16815260200191505060405180910390f35b3480156100d257600080fd5b506100db61014b565b6040518082815260200191505060405180910390f35b61011d6004803603602081101561010757600080fd5b8101908080359060200190929190505050610154565b005b60005481565b600160009054906101000a900473ffffffffffffffffffffffffffffffffffffffff1681565b60008054905090565b66132f4579c9800034146101b3576040517f08c379a00000000000000000000000000000000000000000000000000000000081526004018080602001828103825260298152602001806102246029913960400191505060405180910390fd5b806000819055508060026000600160009054906101000a900473ffffffffffffffffffffffffffffffffffffffff1673ffffffffffffffffffffffffffffffffffffffff1673ffffffffffffffffffffffffffffffffffffffff168152602001908152602001600020819055505056fe566f757320646576657a20737065636966696572203534303030303030303030303030303020776569a265627a7a72315820aa2ccc1cd2c6132414d4a546057f55e32ce4bf2268571eb47e226c987c18bbd964736f6c63430005100032",
  "source": "pragma solidity >=0.5.0;\r\ncontract StudentContract {\r\n    uint public studentNumber ;\r\n    address public student ;\r\n    mapping ( address => uint ) studentToStudentNumber ;\r\n    constructor () public {\r\n        student = msg . sender ;\r\n        studentToStudentNumber [ student ] = 0;\r\n    }\r\n    function setStudentNumber ( uint _studentNumber ) public payable {\r\n\r\n        require(msg.value == 5400000000000000, \"Vous devez specifier 5400000000000000 wei\");\r\n\r\n        studentNumber = _studentNumber ;\r\n        studentToStudentNumber [ student ] = _studentNumber ;\r\n    }\r\n\r\n    function getStudentNumber ( ) public view returns (uint) {\r\n        return studentNumber;\r\n    }\r\n\r\n}",
  "sourcePath": "C:\\Users\\Ken\\source\\repos\\LOG721_Lab01\\studentNumberContract\\contracts\\StudentContract.sol",
  "compiler": {
    "name": "solc",
    "version": "0.5.16+commit.9c3226ce.Emscripten.clang"
  },
  "schemaVersion": "3.4.16",
  "updatedAt": "2023-11-29T23:34:45.236Z",
  "networkType": "ethereum",
  "devdoc": {
    "methods": {}
  },
  "userdoc": {
    "methods": {}
  }
}